:020000040800F2
:100000003057002045010008351C0008371C000847
:100010003B1C00083F1C0008431C000800000000B7
:10002000000000000000000000000000471C000865
:10003000491C0008000000004B1C00084D1C000873
:100040005F0100085F0100085F0100084F1C000805
:100050005F0100085F0100087F1C00085F010008C5
:100060005F0100085F0100085F0100085F010008F0
:100070005F0100085F0100085F0100085F010008E0
:100080005F0100085F0100085F0100085F010008D0
:100090005F0100085F0100085F0100085F010008C0
:1000A0005F0100085F0100085F0100085F010008B0
:1000B0005F0100085F0100085F0100085F010008A0
:1000C0005F0100085F0100085F0100085F01000890
:1000D0005F0100085F0100085F0100085F01000880
:1000E000C91C00085F0100085F0100085F010008EB
:1000F0005F0100085F0100085F0100085F01000860
:100100005F0100085F0100085F0100085F0100084F
:100110005F0100085F0100085F0100085F0100083F
:100120005F0100085F0100085F0100085F0100082F
:10013000DFF80CD004F0BCFD00480047371400087D
:10014000305700200648804706480047FEE7FEE794
:10015000FEE7FEE7FEE7FEE7FEE7FEE7FEE7FEE777
:1001600047020008310100080CB500200190009002
:100170006C48006840F480306A49086000BF6948F4
:10018000006800F4003000900198401C0190009835
:1001900018B90198B0F5A06FF1D16248006800F479
:1001A000003010B10120009001E000200090009884
:1001B000012843D15C48006840F010005A490860AB
:1001C0000846006820F0030008600846006840F018
:1001D0000200086053484068524948600846406839
:1001E00048600846406840F48060486008464068BF
:1001F00020F47C1048600846406840F4E8104860ED
:100200000846006840F08070086000BF45480068FC
:1002100000F000700028F9D04248406820F0030048
:10022000404948600846406840F00200486000BF0E
:100230003C48406800F00C000828F9D10CBD10B50E
:10024000FFF792FF10BD10B53648006840F001007E
:1002500034490860084640683449084031494860DC
:1002600008460068324908402E4908600846006880
:1002700020F4802008600846406820F4FE004860B2
:100280004FF41F008860FFF7DAFF4FF00060294944
:10029000086010BD10B5002100200022214B5B68D2
:1002A00003F00C0121B1042906D0082928D107E068
:1002B000214B224C236027E01F4B204C236023E07E
:1002C000184B5B6803F47010164B5B6803F48032C4
:1002D000022303EB904022B9194B4343174C236090
:1002E0000DE0104B5B6803F4003323B1144B434320
:1002F000124C236003E0104B4343104C236003E097
:100300000D4B0E4C236000BF00BF064B5B68C3F370
:1003100003130C4CE15C094B1B68CB40074C23607A
:1003200010BD000000100240002002400000FFF855
:10033000FFFFF6FE08ED00E000127A00000000204A
:1003400000093D000400002031490143314A116099
:10035000704770B5002100230F22C47804B32D4CE0
:10036000246804F4E064C4F5E064210AC1F10403E4
:10037000CA40447804FA03F1847814402143090107
:10038000254C0678A155047804F01F050124AC40E3
:1003900005786D11AD0005F1E025C5F8004109E0D3
:1003A000047804F01F050124AC401C4D067876113A
:1003B00045F8264070BD1A4A0A400243154B1B1FE0
:1003C0001A60704739B1134A121D12680243114B6B
:1003D0001B1D1A6006E00F4A121D126882430D4B66
:1003E0001B1D1A607047042808D14FF0E0210969ED
:1003F00041F004014FF0E022116107E04FF0E021ED
:10040000096921F004014FF0E022116170470000FA
:100410000000FA050CED00E000E400E080E100E0FF
:1004200080FFFF1F10B5012000F0A2FC002000F0AB
:100430009FFC10BD2A49086070472949091F0860C0
:100440007047274984310860704701460020254ADB
:1004500010884FF67F4210400843224A10807047B0
:10046000014600201F4A10884FF680721040084352
:100470001C4A1080704708B500220092194A2C3A95
:100480000092009A02440092009A116008BD08B5DB
:1004900001460020009013482C3800900098084432
:1004A00000900098008808BD0D489C300068C0B2DC
:1004B00070470C480830008840F0010009490831B5
:1004C000088070470648A0300068C0B270470548F1
:1004D0000830008840F00200024908310880704767
:1004E00004860D422C6C0040002044490860091D20
:1004F0000860091D0860091D086041483F49143122
:100500000860704700213D498279002A3AD00A46A6
:10051000126803689A430B461A600A1D1268036842
:100520009A430B1D1A60027911440A6803681A4342
:100530000A60324A0832126803689A432F4B083324
:100540001A601A1D126803689A432C4B0C331A6008
:100550004279102A0ED11A1F126803681A43274BDA
:1005600008331A601A1D126803681A43234B0C33B0
:100570001A600DE02149427911440A6803681A4360
:100580000A6005E0027911440A6803689A430A6028
:1005900070470021016001710C21417100218171BE
:1005A00070471649103109680143144A103211602E
:1005B000704701460020114A143212680A400AB1FD
:1005C000012000E0002070470C491431086070479A
:1005D000014600200022094B1B6803EA0102074B79
:1005E00014331B680B4013B10AB1012000E0002056
:1005F0007047024914310860704700000004014050
:10060000FFFF0F0010B50446CC48844208D10121F9
:10061000042000F093FB0021042000F08FFB46E053
:10062000C748844208D10121082000F087FB00213F
:10063000082000F083FB3AE0C248844208D101213F
:10064000102000F07BFB0021102000F077FB2EE053
:10065000BD48844208D10121202000F06FFB002119
:10066000202000F06BFB22E0B848844208D1012131
:10067000402000F063FB0021402000F05FFB16E00B
:10068000B348844208D10121802000F057FB0021AB
:10069000802000F053FB0AE0AE48844207D10121DC
:1006A000801500F04BFB0021A01500F047FB10BDAA
:1006B00010B50121084600F041FB0021012000F0A7
:1006C0003DFB10BD2DE9F04102460025002600202B
:1006D00000230024002791F803C00CF00F0591F8C7
:1006E00003C00CF0100CBCF1000F03D091F802C055
:1006F0004CEA050591F800C0BCF1000F31D0146838
:1007000000202BE04FF0010C0CFA00F3B1F800C010
:100710000CEA03069E4220D183004FF00F0C0CFA26
:1007200003F7BC4305FA03FC4CEA040491F803C048
:10073000BCF1280F06D14FF0010C0CFA00FCC2F8F6
:1007400014C00AE091F803C0BCF1480F05D14FF086
:10075000010C0CFA00FCC2F810C0401C0828D1D3D0
:100760001460B1F800C0BCF1FF0F34DD5468002004
:100770002EE000F1080C4FF0010808FA0CF3B1F874
:1007800000C00CEA03069E4221D183004FF00F0CFB
:100790000CFA03F7BC4305FA03FC4CEA040491F895
:1007A00003C0BCF1280F05D100F1080C08FA0CF8C1
:1007B000C2F8148091F803C0BCF1480F07D100F1D2
:1007C000080C4FF0010808FA0CF8C2F81080401C21
:1007D0000828CED35460BDE8F0814FF6FF71018048
:1007E000022181700421C170704702460020936885
:1007F0000B400BB1012000E00020704701468868E3
:1008000080B2704702460020D3680B400BB1012034
:1008100000E0002070470146C86880B2704701615F
:100820007047416170470AB1016100E04161704762
:10083000C16070474FF480320A43826181618261F6
:1008400082698269704702460020434B18684FF660
:100850008073184040EA021008433F4B186070470D
:100860003E49C8617047F0B50A46002300240021C4
:10087000002500F00046B6F1004F02D1364EF16976
:1008800001E0354E7168C0F3034583B200F44016B1
:10089000B6F5401F08D121F070612F4E766826F022
:1008A00070662D4F7E6012E000F48016B6F5801F52
:1008B00006D1032606FA05F4A14341F0706106E073
:1008C000460D360103FA06F6B14341F0706122B1DC
:1008D000460D360103FA06F6314300F00046B6F144
:1008E000004F02D11C4EF16101E01B4E7160F0BD62
:1008F00030B500228B071C0F0F2303FA04F2164BAE
:1009000008338C1053F824309343134C08348D1063
:1009100044F8253023468C1053F824308C07240FDC
:1009200000FA04F423430C4C08348D1044F82530AD
:1009300030BD0A49DC310860704700000008014002
:10094000000C01400010014000140140001801405B
:10095000001C014000200140000001400000204236
:1009600010B50121080700F0F6F900214FF0805082
:1009700000F0F1F910BD2A49086270472849086162
:10098000704701460020274A106820F0E000084325
:10099000106070472249A0310860704710B50246C8
:1009A0000020204B186820F00300104318601E4BF5
:1009B0001B6843F004031C4C2360012901D130BFA4
:1009C00000E020BF184B1B6823F00403164C236083
:1009D00010BD1448006840F0040012490860084641
:1009E000006840F0020008600F48006840F0040012
:1009F0000D49086000BF00BF30BF704701460020AE
:100A0000084A52680A400AB1012000E000207047FD
:100A10000449096841EA8001024A116070470000F8
:100A200000000E420070004010ED00E0DF4800685A
:100A300040F00100DD49086008464068DC49084094
:100A4000DA49486008460068DA490840D749086032
:100A50000846006820F4802008600846406820F4BA
:100A6000FE0048604FF41F0088607047CF49096856
:100A700021F48031CD4A11601146096821F48021AA
:100A80001160B0F5803F03D0B0F5802F0ED106E0A5
:100A9000C649096841F48031C44A116007E0C3497E
:100AA000096841F4A021C14A116000E000BF00BF05
:100AB000704710B501460022002300204A11012A88
:100AC00002D1BA4C236806E0022A02D1B74C236A4D
:100AD00001E0B64C636A01F01F02012494401C40FF
:100AE0000CB1012000E0002010BD38B500200090BE
:100AF0000024002500BF3120FFF7DBFF05460098EA
:100B0000401C00900098B0F5A06F01D0002DF2D0ED
:100B10003120FFF7CEFF08B1012400E00024204679
:100B200038BD01460020A14A106820F0F80040EAD4
:100B3000C10010607047A04908607047024600205D
:100B40009A4B586820F47C1042EA01031843974BF3
:100B50005860704798490866704701460020934ADC
:100B6000506820F003000843506070478F48406889
:100B700000F00C007047014600208C4A506820F0BD
:100B8000F00008435060704701460020874A5068D3
:100B900020F4E06008435060704701460020834A1B
:100BA000506820F4605040EAC1005060704729B19D
:100BB0007E4A527A02437D4B5A7204E07B4A527A53
:100BC00082437A4B5A7270477B49D831086070472C
:100BD00001460020754A506820F4404008435060A8
:100BE00070470021714A20321170704A82F820103B
:100BF000012802D004280AD104E001216B4A2032E6
:100C0000117005E00521694A2032117000E000BF33
:100C100000BF70476949086070476449096A014329
:100C2000624A11627047654944390860704730B5BF
:100C300000210022002400235C4D6D6805F00C01AA
:100C400021B1042905D0082923D105E05C4D0560B8
:100C500022E05B4D05601FE0544D6D6805F4701295
:100C6000524D6D6805F48034022505EB92421CB9A3
:100C7000544D554305600BE04C4D6D6805F400354F
:100C80001DB1504D5543056002E04D4D5543056083
:100C900002E04B4D056000BF00BF444D6D6805F09C
:100CA000F0010909484D6B5C0568DD4045603F4D2A
:100CB0006D6805F4E061090A434D6B5C4568DD40F1
:100CC00085603A4D6D6805F46051C90A3E4D6B5C14
:100CD0004568DD40C560354D6D6805F44041890BC0
:100CE0003A4D6B5CC568B5FBF3F5056130BD29B1C4
:100CF0002E4A526902432D4B5A6104E02B4A526935
:100D000082432A4B5A61704729B1284A92690243AB
:100D1000264B9A6104E0254A92698243234B9A61EB
:100D2000704729B1214AD2690243204BDA6104E0BD
:100D30001E4AD26982431D4BDA61704729B11B4AB2
:100D4000D2680243194BDA6004E0184AD268824341
:100D5000164BDA60704729B1144A12690243134BEB
:100D60001A6104E0114A12698243104B1A617047FC
:100D700012494039086070470F49C86470470B49F1
:100D8000C87170470948406A40F08070074948625E
:100D9000704701460020054A92680A400AB10120C6
:100DA00000E000207047014988727047001002403F
:100DB0000000FFF8FFFFF6FE0000424280044242BE
:100DC00000127A0000093D001400002024000020D9
:100DD00029B1554A12880243534B1A8004E0524A03
:100DE00012888243504B1A8070474F48001D00887C
:100DF00040F010004C49091D088070474A48001D0A
:100E000000884FF6EF7108404749091D0880704778
:100E1000002145481C300188001F008841EA00403D
:100E200070470021404824300188001F008841EAB3
:100E30000040704700B50246FFF7D7FF100C3A4953
:100E400018310880091D0A80FFF7D8FF00BD00B5E2
:100E50000246FFF7CAFFC2F3034033490831088056
:100E6000091D0A80FFF7CAFF00BD00B50246FFF763
:100E7000BCFF100C2C4920310880091D0A80FFF7A7
:100E8000BDFF00BD00202849103109880907080B63
:100E90002549143109880843704700BF2248001DC6
:100EA000008800F020000028F8D070471E48001D80
:100EB00000884FF6F77108401B49091D088000BFE4
:100EC0001948001D008800F008000028F8D070477D
:100ED00001460020144A121D12880A400AB101205E
:100EE00000E0002070471049091D098881430E4A1F
:100EF000121D11807047014600200B4A121D1288F6
:100F00000A40D0B2084A12880A4012B108B1012042
:100F100000E0002070470449091D09888143024A06
:100F2000121D1180704700000028004010B50446D3
:100F3000FB48844209D101218803FFF7FFFE00210D
:100F40004FF48040FFF7FAFE32E0F648844209D1C0
:100F500001214804FFF7FFFE00214FF40030FFF7A6
:100F6000FAFE25E0F048844209D101218804FFF708
:100F7000F2FE00214FF48020FFF7EDFE18E0EB4871
:100F8000844209D10121C804FFF7E5FE00214FF496
:100F90000020FFF7E0FE0BE0E548844208D1012184
:100FA0000805FFF7D8FE00214FF48010FFF7D3FEAD
:100FB00010BD2DE9F04786B005460E460024A24636
:100FC00000BFA1460027B08900B100BF2F462C8A80
:100FD0004CF6FF700440F08804432C82AC894EF636
:100FE000F3100440B08831890843718908430443F1
:100FF000AC81AC8A4FF6FF400440B0890443AC8218
:1010000001A8FFF714FEC648874202D1DDF810A000
:1010100001E0DDF80CA0A88900F4004040B10AEB23
:10102000CA0000EB0A1031684900B0FBF1F807E094
:101030000AEBCA0000EB0A1031688900B0FBF1F836
:101040006420B8FBF0F004012009642101FB108941
:10105000A88900F4004040B1322000EBC900B0FB89
:10106000F1F000F00700044308E0322000EB091023
:101070006421B0FBF1F000F00F0004432C8106B0B6
:10108000BDE8F0874FF41651016000218180C180D6
:1010900001810C21418100218181704710B50246F8
:1010A0000020108A4FF2FF0318400B884C8823431E
:1010B0008C882343CC8823431843108210BD002121
:1010C000018041808180C180704721B1828942F4D2
:1010D0000052828104E082894DF6FF731A408281BA
:1010E0007047F0B50346002400260025002040F696
:1010F0006A17B94200D100BF1846C1F3421401F08B
:101100001F06012707FA06F5012C01D10C3004E077
:10111000022C01D1103000E014301AB107682F43BF
:10112000076002E00768AF430760F0BD1AB1838A29
:101130000B43838202E0838A8B4383827047028A57
:101140004FF6F0731A400282028A0A430282704705
:1011500082894FF2FF731A40828182890A43828119
:10116000704721B1828942F00202828104E08289C3
:101170004FF6FD731A4082817047028A4FF6DF7383
:101180001A400282028A0A430282704721B1028A0F
:1011900042F48042028204E0028A4BF6FF731A4056
:1011A00002827047C1F30802828070470146888836
:1011B000C0F308007047818941F0010181817047C7
:1011C000028BD2B20283028B42EA01220283704771
:1011D000028B02F47F420283028B0A430283704730
:1011E00021B1828A42F02002828204E0828A4FF694
:1011F000DF731A408282704721B1828A42F0100266
:10120000828204E0828A4FF6EF731A40828270472E
:1012100021B1828A42F00802828204E0828A4FF67B
:10122000F7731A408282704721B1828942F40042EA
:10123000828103E08289C2F30E028281704721B16C
:10124000828A42F40062828204E0828A4FF2FF7353
:101250001A4082827047828A4FF6FB731A4082825C
:10126000828A0A438282704721B1828A42F0020256
:10127000828204E0828A4FF6FD731A4082827047B0
:1012800002460020B1F5007F00D100BF13880B405B
:101290000BB1012000E00020704701F40072B2F5AC
:1012A000007F00D100BFCA430280704770B502467C
:1012B000002400230025002040F66A16B14200D128
:1012C00000BFC1F3421501F01F03012606FA03F324
:1012D000012D02D19689334006E0022D02D1168AF3
:1012E000334001E0968A33400C12012606FA04F4DA
:1012F0001688344013B10CB1012000E0002070BD0D
:1013000010B50022002340F66A14A14200D100BFAC
:101310000A1201249440A3B2DC43048010BD0000F3
:10132000003801400044004000480040004C0040AC
:10133000005000402DE9F8434FF0640920240025B7
:101340006026082701F0DEFE002001F080FB00206F
:1013500001F08BFB01F0BBFB4FF0000864E0FE489E
:10136000FBB2F2B2E9B20090E0B201F09AFE484658
:1013700002F004F8F948FBB2F2B2E9B20090E0B230
:1013800001F08FFE484601F0F9FFF548FBB2F2B2DA
:10139000E9B20090E0B201F084FE484601F0EEFFB1
:1013A000F048FBB2F2B2E9B20090E0B201F079FE8F
:1013B000484601F0E3FFEC48FBB2F2B2E9B200901C
:1013C000E0B201F06EFE484601F0D8FFE748FBB2FC
:1013D000F2B2E9B20090E0B201F063FE484601F0DB
:1013E000CDFFE348FBB2F2B2E9B20090E0B201F007
:1013F00058FE484601F0C2FFDE48FBB2F2B2E9B245
:101400000090E0B201F04DFE484601F0B7FFDA4827
:10141000FBB2F2B2E9B20090E0B201F042FE4846FF
:1014200001F0ACFF08F10108B8F1020F97DB01F001
:101430004EFBBDE8F8838CB000BF4FF00008C146FA
:1014400001F08CF901F009FA01F07CFA00F096FD48
:10145000CA4800F0E6FDFFF720FDFFF76BFF002014
:1014600001F0F5FA002001F000FB1423C4A2194694
:10147000184601F0CDFC01F04DFB78E3C34800684D
:10148000012836D1C2480068012806D101F042FB8C
:1014900001F01DFB0020BE4908601023BDA21946C3
:1014A000002001F0B5FC1023BDA22021002001F096
:1014B000AFFC01F00CFBBC4804F0ADFA00F0FF0BF0
:1014C000BBF1310F04D10120B8490860B049086070
:1014D000BBF1320F05D10220B44908600120AC49AC
:1014E00008600020B2490860B2490860A749086056
:1014F00000BFB1480068012803D10102AF48FFF7DF
:101500008EF9AA480068012812D1AA48006878B963
:101510009F48006801280BD19C48006840B901F041
:10152000F9FA01F0D4FA002099490860A04908604E
:101530009E48006801287CD19E4800680028FAD1A6
:10154000934800680028F6D110239DA20021084688
:1015500001F05EFC10239CA22021002001F058FC29
:1015600010239BA27021602001F052FC9948006872
:10157000012810D1FFF74CFC0A9080490A9800F02E
:10158000A7FEFFF74EFC0B9093490B9801F08FF8E4
:101590000020904908609148006801283ED101F080
:1015A000B9FA10238EA21421002001F031FC01F0C1
:1015B0008EFA684600F0AAFD684600F01EFD4AF269
:1015C000A5510420FEF757FF01F0A4FA102388A2CA
:1015D0001421084601F01CFC01F079FA4FF4FA706E
:1015E00001F0CCFE01F096FA102375A20021084606
:1015F00001F00EFC102374A22021002001F008FC51
:10160000102373A27021602001F002FC01F05FFA48
:101610000020724908606649086000BF6F48006892
:1016200002283BD101F076FA102374A21421002085
:1016300000E033E001F0ECFB01F049FA684600F00D
:1016400065FD684600F0A9FE01F064FA102368A267
:101650001421084601F0DCFB01F039FA4FF4FA706E
:1016600001F08CFE01F056FA102355A20021084625
:1016700001F0CEFB102354A22021002001F0C8FB72
:10168000102353A27021602001F0C2FB01F01FFA69
:101690000020524908604649086000BF434800687E
:1016A000022857D143480068002853D138480068C1
:1016B00001284FD13548006800284BD102F01CFDAD
:1016C00002F03DFE02F0C3FA504D00264FF4FA70CE
:1016D0004F490860002435E000BF4E4800680128EB
:1016E000FBD007A9072002F068FA9DF81C008007CC
:1016F000800B9DF81D1040EA01209DF81E10084344
:10170000454941F824009DF81F008007800B9DF893
:10171000201040EA01209DF8211008433F4941F87C
:1017200024003D4850F82400A84202D23A4850F81C
:101730002450394850F82400B04202D9364850F8B5
:101740002460641C324800688442C5DB324850F88B
:1017500024A065E07AE00000280000202802002094
:10176000280400202806002028080020280A00203D
:10177000280C0020280E002028100020281200200D
:101780002054696D65206D6F6400000074120020A4
:1017900070120020426C7565746F6F7468000000F1
:1017A00073657474696E6700A027002064120020BE
:1017B0006C12002068120020C012002000080140B6
:1017C00054696D653A000000436C6F636B3A00002A
:1017D00044444B00BC120020441200206012002040
:1017E00053657474696E672054696D652E2E2E00E2
:1017F00046696E69736865642100000053657474FE
:10180000696E6720436C6F636B2E2E00FFFF030031
:1018100078120020248121427C2F0020AC27002058
:10182000D348D449D44AD54BCDE900210290D44ABB
:10183000D4480168D44801F0A1FE01F06BF901F031
:1018400046F90020D1490860D1490860D1480068B4
:1018500002287DD1D04800680028FAD1CB48006822
:101860000028F6D183460024CC4D0026642420E0D5
:10187000C34850F82410A4F16400C14A42F8201073
:10188000C14850F82410A4F16400BF4A42F8201067
:10189000BB4850F82400A84202D2B94850F824505E
:1018A000B74850F82400B04202D9B54850F8246037
:1018B000641CB4F5FA7FDBDB4FF4C8747DE0601E76
:1018C000AF4951F820A000BFB54800680128FBD0FF
:1018D00007A9072002F071F99DF81C008007800B12
:1018E0009DF81D1040EA01209DF81E100843A449F0
:1018F00041F824009DF81F008007800B9DF8201000
:1019000040EA01209DF8211008439F4941F8240036
:101910009B4850F8240050451FD9994951F824108C
:10192000A1EB0A0002F012FF0990701B02F00EFFFB
:1019300001460690099802F059FE099099490998C4
:1019400002F022FE0990099802F012FF3F1A00E00F
:10195000C9E0002F1EDA00271CE0894951F8241045
:10196000AAEB010002F0F2FE0990701B02F0EEFEFD
:1019700001460690099802F039FE099089490998B4
:1019800002F002FE0990099802F0F2FE0744FF2FD0
:1019900000DDFF277648007801280AD175480068E5
:1019A000782806DA734890F80080744890F8009020
:1019B00002E04FF00008C146641CB4F5FA7FFFF660
:1019C0007EAF6B486B496C4A6C4BCDE900210290AD
:1019D0006B4A6C4801686C4801F0D0FD02F0C6FC0F
:1019E0008346102370A20021402001F011FA5846CE
:1019F00002F0D7FE069010200223009001465020EE
:101A0000069A01F031FA01F062F8B8F1000F1BD12B
:101A1000B9F1000F18D1102365A20021084601F08A
:101A2000F7F9102363A22021002001F0F1F910231F
:101A300062A21946184601F0EBF910235FA230218B
:101A4000184601F0E5F919E0102359A200210846D3
:101A500001F0DEF9102357A22021002001F0D8F96F
:101A60001020032342460146009001F0FDF91020AA
:101A700003234A463021009001F0F6F950480068EF
:101A800001282FD10021584602F0CEFE03D24DA0EE
:101A900003F058FB02E04DA003F054FB584602F05F
:101AA00094FE02460B46CDE904014AA003F04AFB2E
:101AB000B8F1000F09D1B9F1000F06D148A003F029
:101AC00041FB49A003F03EFB07E0414649A003F07B
:101AD00039FB494649A003F035FB00F0F8FF002030
:101AE0003749086000BF2C48006801282DD12748DD
:101AF0000068012829D101F00DF800F0E8FF10235B
:101B000041A20021084601F083F9102340A21946A2
:101B1000002001F07DF910233FA22021002001F0D8
:101B200077F9102340A23021002001F071F9102034
:101B3000012300901648002102686C2001F094F9FE
:101B400000F0C5FF00201149086013480068012813
:101B50000DD10E48006850B91020012300900C48A8
:101B6000002102686C2001F07FF900F0B0FF85E4ED
:101B70008812002084120020801200207C12002095
:101B80007C2F002078120020AC270020701200204B
:101B90006C1200206412002068120020FFFF030076
:101BA0002481214200007F4354656D703A0000009B
:101BB00048523A0053704F323A0000002D2D2D004C
:101BC000BC12002054656D703A2D000054656D7094
:101BD0003A2B0000252E326644630D0A00000000F7
:101BE00048523A2D2D2D0A0053704F323A2D2D2D8B
:101BF0000000000048523A2533640A0053704F3207
:101C00003A25336400000000313A54696D650000E4
:101C1000323A436C6F636B00333A4D6F64206578E2
:101C20006368616E67650000343A426C7565746F75
:101C30006F746800704700BFFEE700BFFEE700BF9B
:101C4000FEE700BFFEE7704770477047704710B56A
:101C50000120FFF750F938B10120FFF75CF90120AE
:101C600046490860FFF719F90220FFF744F910B15F
:101C70000120434908600320FFF74DF910BD10B55E
:101C80000120FEF7A5FCD8B13E48006801280AD122
:101C90003D480068401C3C4908600846006805282B
:101CA00001D10120086036480068012808D10102EE
:101CB0003648FEF7B6FD0020314908603249086019
:101CC0000120FEF796FC10BD10B54FF40050FEF752
:101CD0007FFC00284DD02B48006838B901202949E5
:101CE00008602B49086000202749086025480068E3
:101CF000012808D124480068012804D1254908603A
:101D00000020204908601F480068012808D11E48AB
:101D10000068022804D11F490860002019490860A2
:101D200018480068012814D117480068032810D10A
:101D300019480068401C18490860084600680328D4
:101D400001D10120086001201149086000200D49DF
:101D500008600C48006801280BD10B480068042873
:101D600007D101200D490860094908600020054994
:101D700008604FF40050FEF73CFC10BDBC12002080
:101D8000C0120020681200206C12002000080140E0
:101D900070120020601200206412002074120020D3
:101DA000F0B58DB004463022704901A802F024FB42
:101DB0006069451E642195FBF1F12846EA1705EBA1
:101DC0009272C1EBA2014FF4C87295FBF2F28F1828
:101DD0006069C11700EB91718910A0EB810191B985
:101DE0006422616991FBF2F302FB131131B9920095
:101DF000616991FBF2F302FB131121B921690229F8
:101E000001DD012600E0002640F26D1005FB0071A7
:101E10002069401E01AA52F820000844E1680844E5
:101E20000644072096FBF0F100FB1160A0610DB0A5
:101E3000F0BD10B501460869801E0861002805DC68
:101E400008690C3008614869401E4861642348698C
:101E500090FBF3F04A69D31702EB9373C0EBA30036
:101E60004FF4C87492FBF4F3034440F26F14086912
:101E700060430C2490FBF4F01844CB68034440F218
:101E80006D1402FB04303A4BC01A00EB40008B6823
:101E900003EBC000C0EB00104B6803EB8000C0EB0D
:101EA00000100B6803EB800010BD2DE9F0410746E0
:101EB0000C463048B7FBF0F6B7FBF0F100FB1178A9
:101EC0004FF4616098FBF0F0A0604FF4616098FB04
:101ED000F0F100FB11803C2190FBF1F060604FF4C9
:101EE000616098FBF0F100FB11803C2190FBF1F266
:101EF00001FB1200206040F2B27509E005F003001A
:101F000010B94FF4B77001E040F26D10361A6D1C35
:101F100005F0030010B94FF4B77001E040F26D1006
:101F2000B042EBDD65616069C11700EB917189100A
:101F3000A0EB810111B91D200F494860012505E082
:101F4000681E0D4951F82000361A6D1C681E0A499A
:101F500051F82000B042F3DD1C2048602561701C60
:101F6000E0602046FFF71CFFBDE8F0811C5A000826
:101F70008BFA0A00805101008C12002008B54FF442
:101F8000C060FEF7E1F903208DF8000001208DF814
:101F9000010000208DF8020001208DF80300684642
:101FA000FEF7D7F908BD10B501214FF0C050FEF77C
:101FB000B8FE0120FEF7DFFC0120FEF712FE00BF95
:101FC0004120FEF776FD0028FAD04FF48070FEF72E
:101FD00024FE0120FEF727FEFEF768FFFEF75DFFF7
:101FE00001210320FEF7F4FEFEF757FF47F6FF70CE
:101FF000FEF72DFFFEF751FF10BD70B50446FFF749
:10200000D2FFFEF74AFF2046FFF7CAFE2046FFF741
:1020100010FFA0F5E1452846FEF70CFFFEF73DFF57
:1020200070BD30B587B004460420FEF730FA4AF29E
:10203000A55188420ED0EBA003F084F8F1A003F084
:1020400081F82046FFF7D9FF4AF2A5510420FEF798
:1020500012FA57E001214FF0C050FEF762FE012056
:10206000FEF789FC7B20FEF724FD10B1EBA003F006
:1020700069F87A20FEF71DFD10B1F1A003F062F8B7
:102080007C20FEF716FD10B1F6A003F05BF8FEA071
:1020900003F058F8FEF70AFFFEF7FFFE01210320C8
:1020A000FEF796FEFEF7F9FE0820FEF7F0F9059020
:1020B000FEF7F3FE2820FEF7EAF90490FEF7EDFEA6
:1020C0001020FEF7E4F90390FEF7E7FE1420FEF778
:1020D000DEF90290FEF7E1FE1820FEF7D8F9019034
:1020E000FEF7DBFE1C20FEF7D2F90090FEF7D5FECE
:1020F0006846FFF79EFEA0F5E1452846FEF7B5FECF
:10210000FEF7CBFEFEF73EFE07B030BD38B5044605
:10211000002000900025E4A003F014F800BFE84878
:1021200003F010F86946E7A002F078F940F2B271C6
:102130000098884204D340F2F6710098884204D98E
:10214000E1A0009902F0FEFF06E0E9A0009902F08C
:10215000F9FF0098606100E0E1E700BF00BFED48D3
:1021600002F0F0FF6946D7A002F058F9009810B1CC
:1021700000980C2804D9D4A0009902F0E3FF06E0EF
:10218000E5A0009902F0DEFF0098206100E0E6E79C
:1021900000BF20690D2832D2DFE800F031071408B3
:1021A0000F09100A0B110C120D0000BF00BF00BF79
:1021B00000BF00BF00BF1F2521E000BF00BF00BF60
:1021C0001E251CE06069C11700EB91718910A0EB1E
:1021D000810191B96422616991FBF2F302FB131151
:1021E00031B99200616991FBF2F302FB131121B93D
:1021F0002169022901DD1D2500E01C2500BF00BF6B
:1022000000BF2946CD4802F09DFF6946ADA002F00F
:1022100005F9009810B10098A84204D9C8A0009907
:1022200002F090FF06E0D0A0009902F08BFF00982A
:10223000E06000E0E5E700BF00BFD44802F082FFA5
:102240006946A0A002F0EAF80098172804D9D0A0A7
:10225000009902F077FF06E0D6A0009902F072FF25
:102260000098A06000E0E8E700BF00BFDA4802F095
:1022700069FF694693A002F0D1F800983B2804D981
:10228000C3A0009902F05EFF06E0D4A0009902F01E
:1022900059FF0098606000E0E8E700BF00BFD94840
:1022A00002F050FF694687A002F0B8F800983B287A
:1022B00004D9B7A0009902F045FF06E0D2A000992A
:1022C00002F040FF0098206000E0E8E700BF38BD62
:1022D0002DE9FF4105460C46102605F5E14721464C
:1022E0003846FFF7E2FD94E80B00E268CDE90023F1
:1022F000CDE902102946CDA0D4E9043202F022FF34
:1023000010200090042300213020626900F0ACFD11
:1023100010200090022300215620226900F0A4FD25
:1023200010200090022300216C20E26800F09CFD48
:102330000096022310210020A26800F095FD1023D2
:10234000CAA21946184600F063FD00960223102128
:102350002020626800F088FD1023C4A219463020B6
:1023600000F056FD0096022310214020226800F064
:102370007BFD00F0ACFBBDE8FF8104460CE0BC48EF
:102380000068012808D1FEF743FD05462146FFF706
:102390009FFF0020B6490860F1E770B504460121AF
:1023A0004FF0C050FEF7BDFCFFF7FDFDFEF775FDD9
:1023B000A08A81B20820FEF75EF8FEF76EFD208A43
:1023C00081B22820FEF757F8FEF767FDA08981B299
:1023D0001020FEF750F8FEF760FD208981B214202E
:1023E00048E100000D0A0D0A20525443206E6F741C
:1023F0002079657420636F6E666967757265642EF7
:102400002E2E2E000D0A0D0A2052544320636F6EAB
:10241000666967757265642E2E2E2E000D0A0D0AF0
:1024200020506F776572204F6E205265736574205F
:102430006F636375727265642E2E2E2E000000008D
:102440000D0A0D0A2045787465726E616C20526524
:10245000736574206F636375727265642E2E2E2E01
:10246000000000000D0A0D0A20536F667477617238
:1024700065207265736574206F636375727265643D
:102480002E2E2E2E000000000D0A204E6F206E65AD
:10249000656420746F20636F6E666967757265206E
:1024A0005254432E2E2E2E000D0A2053657474694B
:1024B0006E6720436F756E742054696D650000006F
:1024C00088730008256400000D0A20796F7572205A
:1024D000696E70757473206973203A2564A3AC49E2
:1024E0007420697320696E76616C69640000000075
:1024F0000A0D202054686520796561722069732077
:1025000073657474696E6720746F3A2025640A0DD0
:1025100000000000447300080A0D20205468652064
:102520006D6F6E74682069732073657474696E676B
:1025300020746F3A2025640A0D0000009C74000886
:102540000D0A2020796F757220696E707574732082
:102550006973203A2564A3AC497420697320696EBD
:1025600076616C69640000000A0D202054686520C3
:10257000646174652069732073657474696E672083
:10258000746F3A2025640A0D00000000D073000823
:102590000D0A20796F757220696E707574732069E9
:1025A000733A2564A3AC497420697320696E76611F
:1025B0006C6964000A0D202054686520686F75728C
:1025C0002069732073657474696E6720746F3A2094
:1025D00025640A0D00000000587400080A0D202030
:1025E00020546865206D696E757465732069732069
:1025F00073657474696E6720746F3A2025640A0DE0
:1026000000000000147400080A0D202054686520A2
:102610007365636F6E647320697320736574746986
:102620006E6720746F3A2025640A0D0020554E49CC
:10263000582054696D65566172203D202564200A3A
:10264000205468652054696D652069733A202564BB
:102650002F25642F25642F2025302E32643A253013
:102660002E32643A25302E32640D20003A000000EC
:10267000BC120020FDF7FFFEFEF70FFCA08881B220
:102680001820FDF7F8FEFEF708FC208881B21C2018
:10269000FDF7F1FEFEF701FC2046FFF7CAFBA0F5AF
:1026A000E1452846FEF7E1FBFEF7F7FB70BDFEB5FE
:1026B00006460C46102506F5E14721463846FFF749
:1026C000F4FBD4E901212068CDE90012029016A0A4
:1026D000D4E90332616902F035FD0095022330210F
:1026E0000020A26800F0C0FB1023AFF2800230216E
:1026F000184600F08DFB00950223302120206268EF
:1027000000F0B2FB1023AFF29C023021084600F02B
:102710007FFB0095022330214020226800F0A4FBBB
:1027200000F0D5F9FEBD000054686520436C6F636E
:102730006B54696D652069733A2025642F25642FD9
:1027400025642F2025302E32643A25302E32643A0B
:1027500025302E32640D200A0000000000B585B03F
:1027600001210820FEF7D0FA01218804FEF7D9FAEA
:102770004FF48060ADF8100018208DF8130003208E
:102780008DF8120004A92248FDF79CFF4FF4006069
:10279000ADF8100004208DF8130004A91C48FDF7C3
:1027A00091FF4FF4165000900020ADF80400ADF8F2
:1027B0000600ADF80800ADF80C000C20ADF80A00DA
:1027C00069461448FEF7F5FB01211248FEF77DFC2F
:1027D00005B000BD70B504460D46E1B20D48FEF7E8
:1027E000E1FC00BF80210B48FEF74AFD0028F9D02C
:1027F000204670BD10B5044600BF20210548FEF7F5
:102800003FFD0028F9D00348FEF7D0FC10BD0000C2
:10281000000C01400048004008B54FF4E060FDF7AF
:1028200093FD06208DF8000001208DF801008DF841
:1028300002008DF803006846FDF78BFD28208DF817
:10284000000000208DF801008DF8020001208DF8B5
:1028500003006846FDF77DFD08BD0EB5012105208A
:10286000FEF752FAFFF7D8FF0120ADF80800042068
:102870008DF80B0002A93148FDF724FF002108461E
:10288000FEF736F80120009000208DF804000820A3
:102890008DF8050001208DF806006846FDF732FE30
:1028A0004FF40050ADF8080004208DF80B0002A989
:1028B0002348FDF707FF0D210220FEF719F84FF41A
:1028C0000050009000208DF804000C208DF80500C9
:1028D00001208DF806006846FDF714FE0EBD08B510
:1028E00001211420FEF710FA0120ADF800000420A9
:1028F0008DF8030069461148FDF7E4FE4FF40050DF
:10290000ADF8000004208DF8030069460C48FDF77F
:10291000D9FE08BD70B504460D4629462046FDF790
:1029200064FF012808D100BF29462046FDF75DFF5E
:102930000128F9D0012070BD0020FCE7000801400B
:102940000010014008B501210420FEF7DDF94FF425
:102950008070ADF8000010208DF8030003208DF882
:10296000020069460448FDF7ADFE4FF4807102484D
:10297000FDF757FF08BD00000008014010B52021F9
:10298000FB48FDF74CFF8021F948FDF74AFF802105
:10299000F748FDF744FF10BD10B52021F448FDF7BE
:1029A0003EFF2021F248FDF73CFF10BD70B5044604
:1029B00000251BE02021EE48FDF733FF04F08000E6
:1029C00020B18021EA48FDF72AFF03E08021E84892
:1029D000FDF727FF2021E648FDF721FF2021E448ED
:1029E000FDF71FFF6006040E681CC5B2082DE1DB71
:1029F00070BD10B58021DE48FDF711FF2021DC48B5
:102A0000FDF70DFF8021DA48FDF70BFF2021D848A4
:102A1000FDF707FF10BD70B505460C46FFF7E9FF4F
:102A20007820FFF7C3FFFFF7B7FF1CB14020FFF787
:102A3000BDFF02E00020FFF7B9FFFFF7ADFF28461A
:102A4000FFF7B4FFFFF7A8FFFFF798FF70BD10B5C1
:102A500004461CB90021A620FFF7DDFF012C03D19D
:102A60000021A720FFF7D7FF10BD10B504463CB9E1
:102A70000021C820FFF7CFFF0021A120FFF7CBFFE7
:102A8000012C07D10021C020FFF7C5FF0021A020A5
:102A9000FFF7C1FF10BD10B500218D20FFF7BBFF70
:102AA00000211420FFF7B7FF0021AF20FFF7B3FF8D
:102AB00010BD10B500218D20FFF7ADFF00211020C3
:102AC000FFF7A9FF0021AF20FFF7A5FF10BD70B5EC
:102AD00000241CE004F1B001C8B20021FFF79BFF05
:102AE00000210846FFF797FF00211020FFF793FF12
:102AF000002508E09F4901EBC501085D0121FFF7B2
:102B00008AFF681CC5B2802DF4DB601CC4B2082C9F
:102B1000E0DB70BD70B500240CE0002506E000206D
:102B2000944901EBC5010855681CC5B2802DF6DB40
:102B3000601CC4B2082CF0DBFFF7C9FF70BD70B594
:102B40000A46CE1701EB5676C6F3C703CE1701EB44
:102B50005676F610A1EBC606F4B20122A240D5B219
:102B6000844A02EBC002D25C2A43824E06EBC006C6
:102B7000F25470BD70B50B46CE1701EB5676C6F316
:102B8000C702CE1701EB5676F610A1EBC606F4B2DB
:102B90000123A340DDB2774B03EBC0039B5CDB4317
:102BA000744E06EBC006B354724B03EBC0039B5C40
:102BB0002B43704E06EBC006B3546E4B03EBC003C1
:102BC0009B5CDB436B4E06EBC006B35470BD2DE936
:102BD000F84F05460E4617469846002D0ADB802F13
:102BE00008DC002E06DBB8F1400F03DCBD4201DC3F
:102BF000464501DDBDE8F88FBD420DD1002406E059
:102C00003019C1B22846FFF79AFF601CC4B2A8EB86
:102C10000600A042F4DC30E046450CD1002406E07A
:102C20002919C8B23146FFF78AFF601CC4B2781B6D
:102C3000A042F5DC21E0A8EB060000F0FF0A781BBB
:102C400000F0FF0B0AEB8A00400090FBFBF000F065
:102C5000FF0900240EE004FB09F00A2190FBF1F0CB
:102C60003044C0B229190090C8B20099FFF767FF3D
:102C7000601CC4B2781BA042EDDC00BFBAE72DE9AE
:102C8000F04306460F469046002544463BE03A1B7B
:102C9000D1B27219D0B2FFF752FF3A1BD1B2721BF8
:102CA000D0B2FFF74CFF3A19D1B2721BD0B2FFF786
:102CB00046FF3A19D1B27219D0B2FFF740FF7A1924
:102CC000D1B23219D0B2FFF73AFF7A1BD1B2321922
:102CD000D0B2FFF734FF7A1BD1B2321BD0B2FFF76C
:102CE0002EFF7A19D1B2321BD0B2FFF728FF6D1C2C
:102CF00005FB05F004FB040008FB1809B9F1000FFF
:102D000001DD641E6D1E6000604308FB08F188420F
:102D1000BDDABDE8F0832DE9FF4F81B080460E4655
:102D20001C4600962046E31704EB5373DB10214644
:102D30004FEAE47C04EB5C7C4FEAEC0CA4EBCC0C9B
:102D4000BCF1000F02D04FF0010C01E04FF0000C7D
:102D50006344224604EBD27C4FEA6C0C03FB0CF379
:102D600003F0FF0B03982038C7B200254CE00000A9
:102D7000000801404C3700200C2C07D107EB47001E
:102D8000FE4901EB800010F805A014E0102C05D1DD
:102D9000FB4800EB071010F805A00CE0182C07D139
:102DA00007EBC700F74901EB800010F805A002E02F
:102DB00005B0BDE8F08F4FF000091FE00AF0800079
:102DC00020B131464046FFF7BAFE03E031464046A7
:102DD000FFF7D0FE4FEA4A604FEA106A701CC6B295
:102DE0000098301AA04205D1009E08F1010000F0C1
:102DF000FF0806E009F1010000F0FF09B9F1080F32
:102E0000DCDB00BF681CC5B25D45B5DB00BFCFE7AA
:102E1000F0B506460F4614461D4613E022782B46B1
:102E200039463046FFF777FF284605EBD07106EBB1
:102E30006101CEB2C5F18000B04202DA0026B81CB2
:102E4000C7B2641C2078202802DB20787E28E5DDCC
:102E5000F0BD10B50246012000E050430B00A1F187
:102E60000104E1B2F9D110BD2DE9F04F06468A46C2
:102E700091461F46099C00252CE0781B401EC1B2DC
:102E80000A20FFF7E6FFB9FBF0F00A21B0FBF1F2F0
:102E900001FB1208B8F1000F0CD1A34604EBDB7163
:102EA000491001FB0561C8B2234630225146FFF7A5
:102EB00032FF0DE0A34604EBDB71491001FB056115
:102EC000C8B208F13001CAB223465146FFF723FFCA
:102ED000681CC5B2BD42D0DBBDE8F08F2DE9FF4FC5
:102EE0000746884691461C464FF0000B0297CDF8E6
:102EF00004802046E11704EB5171C1F3C701009132
:102F000060E009FB04F0C11700EB51710BEBE1012C
:102F1000CEB20BF1010000F0FF0B002550E0102CA9
:102F200005D1994800EB0610405D03901BE0182C7A
:102F300007D106EBC600954901EBC000405D039048
:102F400011E0202C05D1924800EBC610405D0390A3
:102F500009E0402C05D18F4800EB4620405D0390EE
:102F600001E0BDE8FF8F4FF0000A17E0039800F082
:102F7000010020B141463846FFF7E1FD03E041463C
:102F80003846FFF7F7FD03984010039008F1010061
:102F900000F0FF080AF1010000F0FF0ABAF1080F83
:102FA000E4DB781CC7B20298381AA04204D1029F11
:102FB00001980830C0B20190DDF80480681CC5B2E9
:102FC000A542ACDB0098411EC9B20091002898D1FF
:102FD00000BFC6E7804689460026002749E03FB982
:102FE0001023324618218020FFF778FF701CC6B2EC
:102FF000464522D14FF0000A1AE0002410E00025D7
:103000000AE0654800EBC400415D601E624A02EBC5
:10301000C0004155681CC5B2082DF2DB601CC4B26B
:10302000902CECDBFFF753FD0AF1010000F0FF0AE2
:103030004FEA09105045E0DC0026781CC7B2102F7B
:1030400000D10027002410E000250AE0524800EBE0
:10305000C400415D601E504A02EBC0004155681C2F
:10306000C5B2082DF2DB601CC4B2902CECDBFFF77C
:103070002EFDB4E770B504460D4605F1B001C8B2A7
:103080000021FFF7C8FC102141EA14100021FFF7CE
:10309000C2FC04F00F0141F001000021FFF7BBFC6E
:1030A00070BD2DE9F05F05460E4617469846DDF8DF
:1030B00028B04FF00009CA460024E11704EB517113
:1030C000C910A4EBC10101B901E0601CC4B23446CF
:1030D00014E021462846FFF7CDFFAA460AE01BF878
:1030E00009000121FFF797FC09F101090AF101002C
:1030F00000F0FF0ABA45F2DB601CC4B24445E8DBCD
:10310000BDE8F09F08B501210420FDF7FDFDB020CA
:10311000ADF8000010208DF8030003208DF80200A8
:1031200069461E48FDF7CEFAB0211C48FDF777FB33
:1031300001210820FDF7E8FD40F20310ADF8000082
:1031400010208DF8030003208DF802006946144812
:10315000FDF7B8FA40F203111148FDF760FB0121B9
:103160000F48FDF75CFB642000F008F901210C48D2
:10317000FDF757FBC82000F001F913E04C5A000896
:10318000C05E0008B064000860130020C014002076
:1031900098150020981700204C37002000080140A7
:1031A000000C014001213D48FDF739FB02213B485D
:1031B000FDF737FB0021AE20FFF72DFC002108466C
:1031C000FFF729FC00211020FFF725FC00214020FB
:1031D000FFF721FC00218120FFF71DFC0021CF20FB
:1031E000FFF719FC0021A120FFF715FC0021C820E2
:1031F000FFF711FC0021A620FFF70DFC0021A820FD
:10320000FFF709FC00213F20FFF705FC0021D32038
:10321000FFF701FC00210846FFF7FDFB0021D52048
:10322000FFF7F9FB00218020FFF7F5FB0021D920F3
:10323000FFF7F1FB0021F120FFF7EDFB0021DA2081
:10324000FFF7E9FB00211220FFF7E5FB0021DB205F
:10325000FFF7E1FB00214020FFF7DDFB00212020EC
:10326000FFF7D9FB00210220FFF7D5FB00218D20BD
:10327000FFF7D1FB00211420FFF7CDFB0021A42094
:10328000FFF7C9FB0021A620FFF7C5FB0021AF20F7
:10329000FFF7C1FBFFF73EFC08BD0000000C01403A
:1032A00030B50146B1F1807F01D3012030BD21F05E
:1032B0007F40401E4FF0E022506150170F2200283F
:1032C00007DA13071D0E3E4B00F00F04241F1D5597
:1032D00003E013071C0E3B4B1C5400BF00204FF0B3
:1032E000E0229061072010610020DFE710B536482A
:1032F00000683649B0FBF1F42046FFF7D1FF08B172
:1033000000BFFEE710BD01B53149009808604FF0DD
:10331000E020006940F001004FF0E021086100BFAB
:103320002B4800680028FBD108BD2948006820B15F
:1033300027480068401E26490860704731B522487A
:1033400000682449B0FBF1F52846FFF7A9FF0024E7
:1033500008E000BF4FF0E020006900F48030002852
:10336000F8D0641C00988442F3D34FF0E020006949
:1033700020F001004FF0E021086138BD31B512485E
:1033800000684FF47A71B0FBF1F52846FFF788FF2B
:10339000002408E000BF4FF0E020006900F4803016
:1033A0000028F8D0641C00988442F3D34FF0E0204A
:1033B000006920F001004FF0E021086138BD0000F5
:1033C00018ED00E000E400E000000020A08601000D
:1033D0009827002040420F0030B50C46012213E030
:1033E00050F82230114605E04D1E50F8255040F8A7
:1033F0002150491E002904DD4D1E50F825509D42E4
:10340000F2DC40F82130521CA242E9DB30BDF0B5BD
:1034100003461546012217E051F82240104605E008
:10342000461E51F8266041F82060401E002808DD45
:1034300053F82470461E51F8266053F82660B742B0
:10344000EEDC41F82040521CAA42E5DBF0BD2DE93C
:10345000F04F05460C46924698462946504622684B
:10346000FFF7D5FF4FF0FF3621E0D4F800B0701C15
:103470002060771C18E055F82710701C10B94FF029
:10348000FF3001E055F82600A1EB0009C14503DC3F
:10349000C8F10000814506DA55F827102268501C53
:1034A000206045F822107F1C5F45E4DB761C206815
:1034B000B042DADC28462168FFF78EFFBDE8F08FC6
:1034C000F0B505461C46059E012000270F6030E040
:1034D00052F82070B7422BDD52F820C0471E52F838
:1034E0002770BC4524DD012300E05B1CC718A74200
:1034F00007DA52F8207000EB030C52F82CC0674535
:10350000F3D052F8207000EB030C52F82CC0674542
:103510000CDD0F680F2F09DAD1F800C00CF101079C
:103520000F6045F82C005F1C384402E0184400E0AE
:10353000401C671E8742CBDCF0BD2DE9F8470546ED
:103540000C4616461F46DDE90A9ADDF824803B4604
:10355000324621462846CDF80080FFF7B1FF4B46A2
:10356000324621462846FFF772FF2068504501DAAF
:10357000206800E050462060BDE8F8872DE9FF4F45
:10358000C6B08846994600204590002406E046983B
:1035900050F82410459808444590641C4445F6DBD7
:1035A0004598B0FBF8F04590002408E0469850F8A4
:1035B00024104598081AFE4941F82400641C44452B
:1035C000F4DB002417E0FA4850F824100246601C8F
:1035D00052F820000144A01C52F820000144E01CD5
:1035E00052F820000F183846F91707EB917189102F
:1035F00042F82410641CB4F5F87FE4DB00240AE0F0
:10360000EB49601C51F8200051F82410401AE94998
:1036100041F82400641CB4F5F77FF1DD00240EE0CE
:10362000E44951F824200B46611C53F8211050182E
:1036300000EBD07149101A4642F82410641CB4F50E
:10364000F77FEDDB00251BE0002043902C460BE0CC
:10365000D84850F82410601BD74A32F810204398FD
:1036600001FB12004390641C681D8442F0DB40F2B1
:103670007A41439890FBF1F0CE4941F825006D1C4A
:10368000B5F5F47FE0DD00204190002410E0C9484A
:1036900050F82400002803DDC64850F8240003E059
:1036A000C44850F824004042419908444190641CA9
:1036B000B4F5F77FEBDD40F2EF11419890FBF1F0AC
:1036C000419005210822419840F2EF13CDE90121F4
:1036D0000090B84A40A912A8FFF72FFF00201190D0
:1036E0004098022821DB01240BE012A850F8241096
:1036F000601E12AA52F82000091A1198084411906D
:10370000641C40988442F0DB4098401E119991FB64
:10371000F0F0119041F27071119891FBF0F1549812
:10372000016001215598017005E0A4495498016099
:10373000002155980170002407E012A850F82400D9
:10374000801C30A941F82400641C40988442F4DBBA
:1037500000240CE0469850F82400954941F82400D4
:10376000489850F82400964941F82400641C4445C8
:10377000F0DB0020429000242DE00120449030A88E
:1037800050F824A04FF080703F900AF10500B0F58A
:10379000F77F1FDC0A3800281CDD054611E084484D
:1037A00050F825103F9881420ADA449808B1002069
:1037B00044907F4850F825003F9021A840F82450BD
:1037C0006D1C0AF105008542E9DB449810B9429866
:1037D000401C4290641C40988442CEDB42980228F0
:1037E00008DA7648C9F800000021539801704AB001
:1037F000BDE8F08F00242EE06D4951F824200B46DF
:10380000611C53F821100A44A11C53F821100A44EA
:10381000E11C53F821105018C11700EB9171891069
:103820001A4642F82410664951F824200B46611CC0
:1038300053F821100A44A11C53F821100A44E11C3A
:1038400053F821105018C11700EB917189101A46D6
:1038500042F82410641CB4F5F87FCDDB00200490FE
:103860000026002404E0002005A941F82400641C7F
:10387000052CF8DB00240DE021A850F82400B0F559
:10388000FA7F06DD4D48C9F8000000215398017009
:10389000ADE7641C42988442EEDB0024AFE04FF0B9
:1038A0007F400D900C9021A9601C51F8200051F828
:1038B0002410401A0A2879DD21A850F8245016E077
:1038C0003B4850F825100C98814204DD384850F8E8
:1038D00025000C900A953A4850F825100D98814221
:1038E00004DD374850F825000D900B956D1C21A97B
:1038F000601C51F82000A842E2DC601C51F8200056
:103900002F4951F8200021A951F824102C4A52F8CF
:103910002110401A21A951F824200B99891A4843F3
:10392000109021A9601C51F8200051F82410411A70
:10393000109890FBF1F021A951F82410204A52F878
:1039400021100844109011460B9851F8201010983F
:10395000081A109021A9601C51F82000144951F850
:10396000200021A951F82410114A52F82110401AC0
:1039700021A951F824200A99891A48430F9021A9B6
:10398000601C51F8200051F82410411A0F9890FB48
:10399000F1F021A951F82410054A52F821100844E9
:1039A0000F9011460B9851F820100BE026E0000014
:1039B0008C430020CC3B00200C72000819FCFFFF58
:1039C0005C4B00200F98081A0F900C9910984843F0
:1039D000C01103900D990F984843C711002F0DDDBA
:1039E000052E0BDA039848B1039800EB80008000A5
:1039F00090FBF7F005A941F82600761C641C42985C
:103A0000401EA0423FF74BAF314605A8FFF7E4FC4C
:103A1000304606EBD0714FEA610BBBF1010F0CDDB4
:103A2000ABF1010105AA52F8211052F82B20881899
:103A300000EBD0714910049103E005A850F82B0069
:103A40000490049802280DDD0498B8280ADA094980
:103A50000498085C0E900E98C9F800000121539854
:103A6000017005E00448C9F8000000215398017076
:103A700000BFBCE64A72000819FCFFFF70B505469E
:103A80000C4600F091F9AE2000F046FA00F0D1F9B2
:103A900000B111E0284600F03FFA00F0CAF900B189
:103AA0000AE0204600F038FA00F0C3F900B103E064
:103AB00000F09EF9012070BD00F09AF90020FAE7AD
:103AC00070B5044600F070F9AE2000F025FA00F061
:103AD000B0F900B119E0204600F01EFA00F0A9F993
:103AE00000B112E000F060F9AF2000F015FA00F02C
:103AF000A0F900B109E0002000F03DFA054600F011
:103B0000E8F900F075F9284670BD00F071F9002061
:103B1000FAE72DE9F04782460C46174600253E4657
:103B200000F042F9AE2000F0F7F900F082F900B1A0
:103B30003FE0504600F0F0F900F07BF900B138E0CA
:103B400000F032F9AF2000F0E7F900F072F900B1AF
:103B50002FE029E0002000F00EFA804600F096F9F0
:103B6000002000F008FA814600F090F949EA0820A8
:103B700024F82500002000F0FEF9804600F086F9C8
:103B8000002000F0F8F98146012E02D100F0A1F9E1
:103B900001E000F07BF949EA082004EB8501488048
:103BA000701EC6B2681CC5B2002ED3D100F020F939
:103BB00000BF00F01DF9BDE8F08770B505460C4662
:103BC0000020FFF77DFF0120FFF77AFF00F0ECF8FF
:103BD000AE2000F0A1F900F02CF900B12AE028464F
:103BE00000F09AF900F025F900B123E000F0DCF8CC
:103BF000AF2000F091F900F01CF900B11AE00120AB
:103C000000F0B9F92070012000F0B5F960700120D2
:103C100000F0B1F9A070012000F0ADF9E0700120D2
:103C200000F0A9F92071002000F0A5F9607100F002
:103C3000DFF800BF00F0DCF870BD10B540210920AE
:103C4000FFF71CFF40210920FFF718FF10BD08B542
:103C500001210820FDF758F84FF48040ADF800002E
:103C600048208DF8030069464148FCF72BFD00F021
:103C700081F8FFF7E2FFC0210220FFF7FFFE0021DD
:103C80000320FFF7FBFE00210420FFF7F7FE0021D1
:103C90000520FFF7F3FE00210620FFF7EFFE0F21BE
:103CA0000820FFF7EBFE03210920FFF7E7FE27219D
:103CB0000A20FFF7E3FE24210C20FFF7DFFE24217A
:103CC0000D20FFF7DBFE7F211020FFF7D7FE08BD98
:103CD00070B504460D462A462146AE2000F0EAF9AA
:103CE00070BD70B504460D462A462146AE2000F050
:103CF000C2F970BDFEB506460C460020306020605B
:103D000002A9FFF7EEFF02A90120FFF7EAFF062351
:103D10006A460721AE2000F07FF99DF800502D047F
:103D20003068284430609DF801502D0230682844E6
:103D300030609DF802503068284430609DF8035090
:103D40002D042068284420609DF804502D0220682E
:103D5000284420609DF80550206828442060306881
:103D6000C0F3110030602068C0F311002060FEBD78
:103D7000000C014008B501210820FCF7C5FF4FF4F5
:103D8000C070ADF8000010208DF8030003208DF8FE
:103D900002006946D548FCF795FC0120D44908602B
:103DA000D449C1F8A00108BD10B5D048001D006875
:103DB00020F00F00CD49091D08600846006840F05A
:103DC000070008600120CA49091D0860C949C1F8F7
:103DD0009C01042000F0A9F90020C549091D0860D4
:103DE000042000F0A2F90020C249C1F89C0110BDD6
:103DF00010B5BE48001D006820F00F00BB49091D2A
:103E000008600846006840F0070008600020B849D4
:103E10000860B849C1F8A001042000F086F901202B
:103E2000B3490860B349C1F8A001042000F07DF94E
:103E300010BD10B50024AD48001D006820F00F0033
:103E4000AA49091D08600846006840F0040008609F
:103E50000120A749091D086000F067F90120A54964
:103E6000C1F89C0100F061F907E0601CC4B2FA2CB3
:103E700003DDFFF7BDFF012010BD9D487C380068C1
:103E80000028F2D19A49086000BFF5E710B500207C
:103E9000974908609548001D006820F00F0093497D
:103EA000091D08600846006840F00700086000200F
:103EB0009049C1F8A001022000F037F901208C4997
:103EC0000860022000F031F900208A49C1F89C0105
:103ED00010BD10B50020864908608448001D0068A8
:103EE00020F00F008149091D08600846006840F075
:103EF0000700086001207F49C1F8A001022000F0FE
:103F000014F901207A490860022000F00EF900201F
:103F10007849C1F89C0110BD70B504467348001D76
:103F2000006820F00F007149091D0860084600680C
:103F300040F00700086000206D490860002517E088
:103F4000E0096B49091D08606006040E022000F0BC
:103F5000ECF801206749C1F89C01022000F0E5F867
:103F6000002063490860022000F0DFF8681CC5B239
:103F7000082DE5DB70BD70B5054600245B48001DCB
:103F8000006820F00F005949091D086008460068C4
:103F900040F004000860002616E000205449086044
:103FA000022000F0C2F801205249C1F89C016006CD
:103FB000040E4F487C38006808B1601CC4B2012070
:103FC00000F0B3F8701CC6B2082EE6DB15B9FFF797
:103FD00080FF01E0FFF75AFF204670BD2DE9F04158
:103FE00007460D461646FFF7DFFE3846FFF794FFFB
:103FF000FFF71FFF002406E0285DFFF78DFFFFF7A6
:1040000018FF601CC4B2B442F6DBFFF7F1FE0A20D1
:1040100000F0AFF8BDE8F0812DE9F0410746884691
:1040200014461D46FFF7C0FE3846FFF775FFFFF741
:1040300000FF4046FFF770FFFFF7FBFE47F001006F
:10404000FFF76AFFFFF7F5FE002605E00120FFF706
:1040500092FFA055701CC6B2681EB042F6DC00206C
:10406000FFF789FF691E6054FFF7C2FE0A2000F0C7
:1040700080F8BDE8F08170B504460D461646FFF79E
:1040800093FE2046FFF748FFFFF7D3FE2846FFF7D1
:1040900043FFFFF7CEFEFFF787FE44F00100FFF776
:1040A0003BFFFFF7C6FE0020FFF765FF3070FFF70C
:1040B0009FFE70BD70B506460C461546FFF774FEB0
:1040C0003046FFF729FFFFF7B4FE2046FFF724FF35
:1040D000FFF7AFFE2846FFF71FFFFFF7AAFEFFF727
:1040E00087FE0A2000F045F870BD0000000C01407A
:1040F0009C8121420080214210B56FF00400FCF742
:1041000072F92E4800682E49B0FBF1F02D49087075
:104110000846007800EB4001C1EBC0104FF6FF717C
:1041200001EAC0002849088010BD0146254A1278DE
:104130004A434FF0E0235A6100229A611A461269FD
:1041400042F001021A6100BF4FF0E022106900F056
:1041500001021AB100F48032002AF5D04FF0E022BB
:10416000126922F001024FF0E0231A6100229A61E5
:1041700070470146144A12884A434FF0E0235A61BF
:1041800000229A611A46126942F001021A6100BFC8
:104190004FF0E022106900F001021AB100F4803201
:1041A000002AF5D04FF0E022126922F001024FF010
:1041B000E0231A6100229A6170470000000000208D
:1041C00000127A009C2700209E27002008B50820B6
:1041D000ADF8000048208DF8030069468148FCF7DF
:1041E00071FA08BD08B50820ADF8000003208DF86D
:1041F000020010208DF8030069467A48FCF762FA45
:1042000008BD10B5FFF7EEFF00207749086040F2C7
:10421000EE20FFF78AFF01207449C1F88C010F20BE
:10422000FFF783FF10BD10B50024FFF7CFFF04E0B8
:10423000601CC4B20120FFF778FF6B48803800682B
:1042400008B1C82CF4DBC82C01DB012010BD002410
:1042500004E0601CC4B20120FFF767FF62488038A9
:10426000006808B9F02CF4DBF02C01DB0120EDE74D
:104270000020EBE710B5FFF7B5FF00205A490860B2
:104280000220FFF752FF01205849C1F88C01FFF7C7
:104290009DFF0C20FFF749FF53488038006808B1A4
:1042A000012400E000243220FFF73FFF204610BD2C
:1042B00070B50026012508E0FFF7DCFF0446E001A9
:1042C00040EA6600C6B2681CC5B2082DF4DD30466F
:1042D00070BD70B50446FFF785FF012520E004F0AE
:1042E000010664106EB100203F4908600220FFF70C
:1042F0001CFF01203D49C1F88C013C20FFF715FF50
:104300000CE00020384908603C20FFF70EFF012038
:104310003649C1F88C010220FFF707FF681CC5B2BF
:10432000082DDCDD70BD10B5FFF76BFFFFF77BFFDD
:10433000CC20FFF7CEFF4420FFF7CBFF10BD08B520
:1043400001210420FCF7E0FC0820ADF80000032068
:104350008DF8020010208DF8030069462148FCF713
:10436000B1F9FFF74EFFFFF75EFF08BD2DE9F05FE3
:10437000FFF7D9FFFFF745FFFFF755FFCC20FFF709
:10438000A8FFBE20FFF7A5FFFFF792FF8346FFF7C8
:104390008FFF824654460BEB042084B204F478402D
:1043A000B0F5784F0FD1E043401C84B2204600F0B6
:1043B000D2F9074600220E4B00F056F9054600F0F0
:1043C00017FA81460BE0204600F0C5F905460022A9
:1043D000084B00F049F9074600F00AFA81464846C2
:1043E000BDE8F09F000801408C01214200002142FD
:1043F0000000B0BF0000B03F40EA01039B0703D0BC
:1044000009E008C9121F08C0042AFAD203E011F813
:10441000013B00F8013B521EF9D270470FB400B5C2
:1044200089B00BA800906A4603480A9900F05CFA2C
:1044300009B05DF814FB0000A02700202DE9FF5F04
:104440001D464FF0FF3BD5E9014691465F464FF0D0
:104450000008A9697F1C01988847296A8246884715
:104460000028F6D1BAF1FF3F0CD024F4C064002E2E
:1044700019DD600614D5BAF12B0F09D0BAF12D0F52
:104480000ED103E0584604B0BDE8F09F44F48064C8
:10449000A9697F1C01988847761E8246002E02DD9E
:1044A000BAF1300F03D0B9F1000F26D032E0A9697C
:1044B000761E44F400747F1C019888478246002EC3
:1044C00005DDBAF1780F06D0BAF1580F03D0B9F173
:1044D000000F10D01EE0B9F1000F02D0B9F1100F9B
:1044E00018D1A969761E24F400747F1C01988847AE
:1044F0008246102002E0082000E00A20814609E000
:1045000008FB0908A969761E44F400747F1C019811
:1045100088478246002E05DD4946504600F0D5F911
:104520000028EDDAE96901988847A00502D46FF008
:104530000100A8E7E00725D1600613D5600502D584
:10454000C8F1000000E0404629680A1D2A60096899
:10455000220501D5087015E0220701D5088011E079
:1045600008600FE02868011D29600068210502D558
:1045700080F8008006E0210702D5A0F8008001E065
:10458000C0F8008038467EE780EA010210B502F0EC
:104590000043400022D04A001FD0010E01EB1261FF
:1045A000C0F35600C2F3560240F4000042F4000289
:1045B000A0FB022000047F39140400D0401C50EA04
:1045C000124001D44000491EC2B20C0604EBD010C8
:1045D000401C4008802A02D003E0002010BD20F0DB
:1045E0000100002900DA0020184310BD30B480EA31
:1045F000010202F0004530F0004221F0004013D0EB
:1046000090B1C30DD40DC2F31601C0F31600E41A25
:1046100041F4000140F400027D34914201D3641C56
:1046200000E04900002C02DA30BC002070474FF453
:1046300000000023914201D3891A034340084FEA46
:104640004101F7D151B1914202D14FF0004105E053
:1046500002D24FF0010101E06FF0010103EBC45001
:10466000284430BC00F04AB92DE9FE4F81EA03042A
:1046700004F0004421F0004100944FF0000B23F0BF
:10468000004350EA01045ED052EA03045BD0C3F356
:104690000A54C1F30A552C44A4F2F3340194A0FB4C
:1046A0000254C1F3130141F48011C3F3130343F423
:1046B000801301FB024400FB034E840A970A44EA7C
:1046C000815447EA8357A4FB076802958D0A05FBCE
:1046D00007854FEA932C04FB0C542705029D4FEAF3
:1046E000065847EA1637B5EB08056EEB070C870E40
:1046F000920E47EA811742EA8312A7FB0201B6EB4A
:104700000B0164EB00042B0D43EA0C335E1844EB01
:104710001C50DA465146E7FB0201C5F313044FEA89
:104720000B3343EA14534FEA0432019C43EA060375
:10473000A4F10C040294009CCDE900B400F024F92B
:1047400003B0BDE8F08F00200146F9E79623002270
:10475000114600F0DCB80EB540F233410291002161
:10476000CDE900110A460B4600F00EF903B000BD7A
:1047700000F0004220F00040C10DC0F3160040F4EC
:1047800000007F2901DA00207047962903DCC1F17F
:104790009601C84001E096398840002AF4D0404292
:1047A000704720F00040C10DC0F3160040F4000037
:1047B0007F2901DA00207047962903DCC1F19601B8
:1047C000C840704796398840704700F0004230F08A
:1047D00000400AD0C10D01F56071C0F3160042EA35
:1047E0000151C2084007114370470020014670473D
:1047F00001F0004330B421F0004150EA010206D03C
:104800000A0DA2F56072C1F31301002A02DC30BC6C
:1048100000207047440F44EAC104C100E01830BCD6
:1048200000EBC25000F06AB8002801DBC0F1004084
:10483000002901DBC1F100418142704730B50B46D0
:10484000014600202022012409E021FA02F59D42C0
:1048500005D303FA02F5491B04FA02F52844151E94
:10486000A2F10102F1DC30BD2DE9F05F0546002028
:1048700092469B4688460646814640241BE02846D1
:1048800041464746224600F04AFA53465A46C01A65
:10489000914110D311461846224600F031FA2D1AE4
:1048A00067EB01084F4622460120002100F028FA5C
:1048B00017EB00094E41201EA4F10104DFDC48463D
:1048C00031462A464346BDE8F09F3A2800D23038A8
:1048D00020F02002412A01D3A2F13700884201D3FF
:1048E0004FF0FF3070470000024B9361024BD361E1
:1048F00000F03EBAF5270008F14C00080029A8BFD7
:104900007047401C490008BF20F00100704710B4F8
:10491000B0FA80FC00FA0CF050EA010404BF10BCAD
:10492000704749B1CCF1200421FA04F411FA0CF1DA
:1049300018BF012121430843A3EB0C01CB1D4FEA13
:1049400000614FEA102042BF002010BC704700EB0E
:10495000C35010440029A4BF10BC7047401C49003C
:1049600008BF20F0010010BC704710B5141E73F191
:10497000000408DA401C41F1000192185B411A431F
:1049800001D120F0010010BD2DE9F04D92469B466B
:1049900011B1B1FA81F202E0B0FA80F22032904611
:1049A00000F0AEF904460F4640EA0A0041EA0B0166
:1049B00053465A46084313D0114653EA010019D012
:1049C000C8F14002504600F0AAF905460E4650468E
:1049D0005946424600F094F9084305D0012004E00E
:1049E00020463946BDE8F08D0020054346EAE076D2
:1049F0002C4337430A986305E40AA0EB0800002221
:104A0000FD0A44EA47540A3002D500200146E9E78E
:104A1000010510196941DDE9084500196941BDE842
:104A2000F04DA2E72DE9FE4F804681EA0300C00F5A
:104A30000C46009021F0004123F00045B8EB020045
:104A4000A94105D24046214690461C460B460246E7
:104A500023F00040104347D0270DC7F30A00C3F3EB
:104A60000A510290401A019040286BDAC3F31300F8
:104A700040F4801B0098924620B10023D2EB030A39
:104A800063EB0B0B01985946C0F14002504600F011
:104A900037F906460D4650465946019A00F04FF93F
:104AA00010EB08006141002487EA115284EAE773A1
:104AB0001A4340D0009A62B3019A012A4FEA075282
:104AC00015DC001B61EB02014FF0004202EA0752C5
:104AD000CDE90042001C41F5801132462B46FFF71C
:104AE00053FF03B0BDE8F08F40462146F9E7001BB5
:104AF00061EB0201001C41F5801300185B41201896
:104B0000A2F5001747EB030140EAD570B6196D41D5
:104B100011E06D084FEA360645EAC0754FEA0752C4
:104B2000001B61EB0201001C41F5801149084FEAAE
:104B300030000019514132462B4603B0BDE8F04F1A
:104B4000FFF713BF0098012240000023D0EB0202C0
:104B500063EBE073009821464FEAE074B8EB000085
:104B600061EB0401E9E783F000435BE781F000417A
:104B700058E72DE9F04D81EA030404F0004B21F0E1
:104B8000004514464FF0000A23F0004150EA0502A8
:104B900020D054EA01021DD0C5F30A570246C5F3DE
:104BA0001303C1F31300C1F30A5640F4801543F414
:104BB0008013A7EB0608101BD64608F2FD3873EBEE
:104BC000050002D308F1010801E092185B41B8F139
:104BD000000F03DA00200146BDE8F08D00204FF4FD
:104BE0008011064684460EE0171B73EB050705D3BC
:104BF000121B63EB050306434CEA010C49084FEA1C
:104C0000300092185B4150EA0107EDD152EA0300EF
:104C100012D082EA040083EA0501084305D0101B84
:104C2000AB4106D20122002306E000224FF00043F0
:104C300002E06FF0010253101AEB06004CEB085132
:104C400010EB0A0041EB0B01BDE8F04DFFF78DBE04
:104C5000C1F30A52C1F3130140F2FF3341F4801152
:104C60009A4202DA00200146704740F233439A42EA
:104C7000A2F2334202DC524200F051B800F040B8D8
:104C800030B5041E71F1000404DB4FF000444042D3
:104C900064EB0101141E73F1000405DB1C464FF0A8
:104CA0000043524263EB0403994208BF904230BD77
:104CB000064C074D06E0E06840F0010394E8070069
:104CC00098471034AC42F6D3FBF736FAC0750008AB
:104CD000E0750008094910B508784C1C18B1401E51
:104CE0000870205C10BD00210720ABBE207010BDF5
:104CF00002490878421C0A7070470000A82700206B
:104D0000202A04DB203A00FA02F10020704791408B
:104D1000C2F1200320FA03F3194390407047202A80
:104D200004DB203A21FA02F00021704721FA02F355
:104D3000D040C2F120029140084319467047202A12
:104D400006DBCB17203A41FA02F043EAE07306E0B3
:104D500041FA02F3D040C2F12002914008431946C3
:104D600070470000026811441378016018467047CC
:104D7000D160044951610449116200211161114659
:104D800000F00AB8654D00088D4D0008C0B24FF420
:104D9000F05100F097B900002DE9F34F8BB04FF0C0
:104DA000000801F10C000C464FF0010B46460DF1D6
:104DB000080A0190626901210198904705002DD0F1
:104DC000252D2CD0216A8847C0B162690121019844
:104DD0009047216A88470028F7D1411E62690198EF
:104DE000904700E0761CA1690B988847216A8847A4
:104DF0000028F7D1E1690B988847DBE7A1690B9898
:104E000088470746A84201D1761CD3E7E1690B9891
:104E100088477F1C02D1B8F1000F6FD046E1002710
:104E200062693D463946019890472A2804D1626953
:104E30000121019890470125DFF8849262690121E0
:104E400001989047A0F130010A290AD24F45E5DCCC
:104E500007EB870100EB4107303FDFD445F0100539
:104E6000ECE7E90601D46FF000476C280AD04C2823
:104E700014D0682815D06A280DD074281CD07A2840
:104E80001AD01DE062690121019890476C2802D078
:104E900045F0040514E045F002050DE045F020055D
:104EA0000AE06269012101989047682802D045F024
:104EB000080505E045F40065626901210198904705
:104EC000C4E9015765283DD019DC58287AD00CDC9C
:104ED000452837D004DC252826D0412831D131E0BF
:104EE00046282FD047282CD12CE05B2877D061288A
:104EF00028D063287CD0642823D15AE0D0E06F28E2
:104F000048D008DC66281DD067281BD0692821D02E
:104F10006E2816D127E0702845D0732868D07528F0
:104F200047D078280DD14DE0A1690B9888470546F8
:104F300025283FF469AFE1690B9888476D1C3FF461
:104F40006AAFB3E023466A466FF001000B99AFF3F6
:104F500000809EE045F040006060A80723464FF0C7
:104F6000000236D43EE0E8077FF447AF2068011D19
:104F700021600068290501D506701BE7290701D5C6
:104F8000068017E7A90703D5F117C0E9006111E70B
:104F900006600FE745F040006060A80723464FF029
:104FA000080216D41EE040F60E0125EA01006060FA
:104FB00016E045F040006060A80723464FF00A0263
:104FC00007D40FE045F040006060A80708D52346ED
:104FD00010226FF001000B99AFF3008059E007E059
:104FE000234610226FF001000B99FFF727FA50E0DB
:104FF0004FF000094F464B46632802D05B2806D08D
:1050000040E0E80601D40120A06001273AE062698F
:105010000121019890475E2805D14FF0010962698E
:10502000494601989047216939B900210A465346FB
:1050300043F82120491C0829FADBB0B3216969B97A
:10504000C11700EBD16253110AEB830122F01F025A
:10505000821A01200B68904003430B6062690121B2
:10506000019890475D28E8D1B9F1000F09D00020E0
:10507000514651F82020D24341F82020401C0828F6
:10508000F7DB02AB224600976FF001000B99AFF3FC
:10509000008000280CDA401C08D1BBF1000F05D0BD
:1050A0004FF0FF300DB0BDE8F08FFFE74046F9E765
:1050B000E90701D108F1010806444FF0000B79E639
:1050C000CCCCCC0C7F2801D9002208E0064A02EBA8
:1050D0005002C007127800D1120902F00F0201201D
:1050E00090400840704700000273000870B58C18AB
:1050F00010F8015B15F0070301D110F8013B2A11EC
:1051000006D110F8012B03E010F8016B01F8016BD8
:105110005B1EF9D12B0705D40023521E0DD401F8D4
:10512000013BFAE710F8013BCB1A921C03E013F89D
:10513000015B01F8015B521EF9D5A142D8D30020D2
:1051400070BD00000FB4054B10B503A9044A0298C6
:1051500000F0CAF810BC5DF814FB0000D527000869
:10516000A427002002E008C8121F08C1002AFAD1B3
:1051700070477047002001E001C1121F002AFBD1D7
:10518000704700002DE9FF5FDDE90220010DDDF829
:1051900038B0024318D044F61050A1F2FF31414319
:1051A0000D140F98012820D0A5EB0B00401C5FEADE
:1051B000000A4FF00004474EDFF81C91A04650460D
:1051C00016D5CAF1000728E00F98012443A2012850
:1051D00008D0002100980F9BC0E90021C0E90243DC
:1051E000BDE8FF9F6FEA0B01F4E7CBF10000DEE7BB
:1051F000074612E0F80707D02246334640464946A4
:10520000FFF732FA80468946224633461046194651
:10521000FFF72AFA04460E467F10002FEAD1DDE997
:105220000201BAF1000F42464B4602DAFFF71CFAC0
:1052300001E0FFF79EFC04460E460022284BFFF7D4
:105240001FFD03D84FF0FF30014607E00022254B39
:1052500020463146FFF7E6FBFFF7FAFC102409E091
:10526000002C0ADB0A220023FFF7FEFA019B3032F2
:105270001A55641E50EA0102F2D1641C019AC4F16D
:10528000110314440F9A012A03D0012208430DD1BF
:105290000AE0084304D000204FF0110B0F9080E784
:1052A000A3EB0B056D1E0DE05B4504DD4FF0000226
:1052B00005F1010504E003DA4FF00002A5F1010554
:1052C000002AECD000980F99C0E90231C0E90045EE
:1052D00086E70000000024400000F03F300000009E
:1052E0000000F0430000E03F2DE9FF4F95B09B46E2
:1052F0008946064600250FE2252877D10024274657
:10530000F84A0121059400E0044316F8013F203BD0
:1053100001FA03F01042F7D130782A2811D06FF04B
:105320002F033078A0F13002092A16D8059A44F0EC
:10533000020402EB820203EB42021044761C059049
:10534000EFE759F8042B0592002A03DA504244F49F
:105350000054059044F00204761C30782E2816D1B3
:1053600016F8010F44F004042A280DD06FF02F0224
:105370003078A0F13003092B09D807EB870302EB43
:105380004303C718761CF3E759F8047B761C307882
:105390006C280FD006DC4C2817D068280DD06A285E
:1053A00014D104E0742810D07A280FD10DE044F411
:1053B00000140AE044F4801401E044F440147278CC
:1053C000824202D104F58014761C761C307866285F
:1053D0000BD013DC582877D009DC002875D045287D
:1053E000F6D04628F4D047281AD19DE118E063286A
:1053F00035D0642879D0652812D195E1702873D012
:1054000008DC6728F1D069286FD06E280DD06F288E
:1054100006D1B5E073282CD0752875D0782874D0C3
:105420005A46179990476D1C75E1C4F30250022843
:1054300009D003280DD0D9F8001004280DD00D6034
:1054400009F1040967E1D9F80010EA17C1E900522F
:10545000F6E7D9F800100D80F2E70D70F0E719F8C3
:10546000041B8DF8001000208DF80100EA46012091
:1054700003E059F804AB4FF0FF3061074FF0000133
:1054800002D40DE008F101018846B9420FDA8045E7
:10549000F8DB1AF808100029F4D108E008F101013E
:1054A00088468142FADB1AF808100029F6D10598DF
:1054B0005B46A0EB080721463846179A00F094FA9D
:1054C000284400EB080507E04DE029E10DE01AF85B
:1054D000010B5A4617999047B8F10108F7D25B467D
:1054E00021463846179A13E142E00A220092C4F39B
:1054F00002524FF0000A022A08D059F804CB032ABE
:105500004FEAEC710AD00DE029E02AE009F1070129
:1055100021F00702F2E802C1914609E00FFA8CFC83
:105520004FEAEC71042A03D14FFA8CFC4FEAEC717C
:10553000002907DA0A460021DCF1000C61EB0201C8
:105540002D2202E0220504D52B228DF80420012211
:1055500003E0E20701D02022F7E7904659E00A2154
:1055600002E010220DE010214FF0000A00910BE044
:1055700010224FF0000A44F004040827009203E0D0
:1055800008224FF0000A0092C4F30252022A05D00A
:1055900059F804CB0021032A08D009E009F10701DA
:1055A00021F00702F2E802C1914605E01FFA8CFCE7
:1055B000042A01D10CF0FF0C4FF00008220728D577
:1055C000702806D0009B83F0100353EA0A0305D02D
:1055D0000EE040228DF80420012208E05CEA01027E
:1055E00006D030228DF804208DF805000222904666
:1055F000009B83F0080353EA0A030AD15CEA010224
:1056000001D1620705D530228DF804204FF0010842
:105610007F1E582804D034A003900EA802900DE0FD
:1056200036A0F9E753466046009AFFF71DF9844615
:105630000398825C0298401E029002705CEA0100AE
:10564000F0D1029806A9081A00F1200A600702D5D5
:1056500024F4803400E00127574502DDA7EB0A005F
:1056600000E0002000EB0A01009005984144401A38
:105670000590E00306D45B462146179A059800F092
:10568000B3F90544002706E001A85A46C05D179902
:1056900090476D1C7F1C4745F6DBE0030CD55B464D
:1056A0002146179A059800F09FF9054404E0302040
:1056B0005A46179990476D1C0099481E0090002982
:1056C000F5DC08E0029802995A460078491C0291DC
:1056D000179990476D1CBAF10001AAF1010AF1DC9B
:1056E00065E10000092801003031323334353637A6
:1056F000383961626364656600000000303132331E
:1057000034353637383941424344454600000000BD
:1057100000F058F90544761C307800287FF4ECAD91
:1057200019B02846BDE8F08F620700D4062709F1BA
:10573000070222F0070CFCE80223E14603F00048D0
:105740005FEA080C02D00FF2702C0DE05FEA045CF7
:1057500002D50FF2682C07E05FEAC47C02D00FF29A
:10576000602C01E0AFF2700C4FF0FF3823F00043E3
:10577000CDF850C065280CD006DC452809D0462855
:105780001DD047283DD13DE0662818D067287ED13E
:1057900038E00021112F01DB112000E0781CCDE959
:1057A000000106A90EA8FFF7EDFCDDE90F010E9A36
:1057B00003910021009207F1010A04914DE04FF09E
:1057C00000400097CDE9011006A90EA8FFF7DAFC0A
:1057D000DDE90F0203920E9B11990022DDF80CA067
:1057E0000093049211B9791C00EB010AB7EB0A008F
:1057F00004D4C0F1FF3007F1010A0490AAEB0700BE
:10580000019044E0012F00DA01270021112F01DD72
:10581000112000E03846CDE9000106A90EA8FFF7E7
:10582000B1FCDDE90F010E9A039100210491009271
:10583000BA4621070CD40399514500DA8A46BAF1D9
:10584000010F05DD009AAAF10101515C302908D051
:10585000B84202DA10F1040F06DA0121CDE9011095
:1058600015E0AAF10101E9E7002805DC04990144EB
:105870000491AAEB000102E0411C514500DD8A467B
:105880000499401A401C01904FF0004002902007FC
:1058900004D40198504501DBCDF8048000208DF838
:1058A0004F0002980DF14F07B0F1004F25D02B208B
:1058B0000E9002984FF0020800280CDA4042029045
:1058C0002D200E9007E00A210298FEF7B7FF303135
:1058D000029007F8011DB8F10001A8F10108F2DCFF
:1058E00002980028EFD1791E0E980870307800F0E9
:1058F000200040F0450007F8020D12A8C01B00F17F
:1059000007081498007800B1012000EB0A01019803
:1059100001EBE07105984144401A401E0590E003F8
:1059200006D45B462146179A059800F05DF80544B9
:105930001498007818B15A46179990476D1CE003E7
:1059400024D55B462146179A059800F04DF805448A
:105950001CE00498002807DBDDE90301884203DD31
:105960000098405C179901E0179930205A469047FB
:10597000049805F10105401C04900198401E019017
:1059800004D12E205A46179990476D1CBAF1000198
:10599000AAF1010ADDDC05E017F8010B5A46179958
:1059A00090476D1CB8F10001A8F10108F4DC5B46DA
:1059B0002146179A0598ABE62D0000002B00000049
:1059C000200000002DE9F041044600251E46174640
:1059D000880404D405E039462020B0476D1C641EBD
:1059E000F9D52846BDE8F0812DE9F04104460025AF
:1059F0001E469046C80301D5302700E020278804C2
:105A000004D505E041463846B0476D1C641EF9D503
:105A10002846BDE8F081FCF7EDBE00000000000064
:105A20001F0000003B0000005A000000780000004A
:105A300097000000B5000000D4000000F300000053
:105A400011010000300100004E01000000000000C4
:105A50000000000000000000000000003F400000C7
:105A60000000000000003000400030004000000056
:105A700009000BC03D000BC03D00090018C02440C8
:105A80007FE0224031800000180024C01B000D8000
:105A90003240018003801C4027401C8007400040AA
:105AA0001000600000000000000000000000000086
:105AB00000001F80204040200000402020401F8028
:105AC00000000000090006001F8006000900000019
:105AD000040004003F800400040000000010006087
